S01200004F4C45445F54455354312E737265631E
S11300000C94AD020C94CA020C94CA020C94CA0259
S11300100C94CA020C94CA020C94CA020C94CA022C
S11300200C94CA020C94CA020C94CA020C94CA021C
S11300300C94CA020C94CA020C94CA020C94CA020C
S11300400C94CA020C94CA020C94CA020C94CA02FC
S11300500C94CA0200000000003E5B4F5B3E3E6B06
S11300604F6B3E1C3E7C3E1C183C7E3C181C577D4E
S1130070571C1C5E7F5E1C00183C1800FFE7C3E79A
S1130080FF0018241800FFE7DBE7FF30483A060EAC
S11300902629792926407F050507407F05253F5AF3
S11300A03CE73C5A7F3E1C1C08081C1C3E7F142263
S11300B07F22145F5F005F5F06097F017F0066890E
S11300C0956A606060606094A2FFA29408047E0454
S11300D00810207E201008082A1C08081C2A08087A
S11300E01E101010100C1E0C1E0C30383E3830063A
S11300F00E3E0E06000000000000005F0000000736
S1130100000700147F147F14242A7F2A1223130863
S1130110646236495620500008070300001C22413F
S1130120000041221C002A1C7F1C2A08083E0808E3
S11301300080703000080808080800006060002093
S1130140100804023E5149453E00427F4000724976
S11301504949462141494D331814127F102745451A
S113016045393C4A49493141211109073649494930
S113017036464949291E000014000000403400009E
S11301800008142241141414141400412214080207
S1130190015909063E415D594E7C1211127C7F497A
S11301A04949363E414141227F4141413E7F4949CF
S11301B049417F090909013E414151737F080808FB
S11301C07F00417F41002040413F017F08142241CC
S11301D07F404040407F021C027F7F0408107F3E26
S11301E04141413E7F090909063E4151215E7F0993
S11301F0192946264949493203017F01033F4040FA
S1130200403F1F2040201F3F4038403F63140814E4
S11302106303047804036159494D43007F4141411C
S11302200204081020004141417F040201020440FD
S113023040404040000307080020545478407F2881
S11302404444383844444428384444287F38545477
S1130250541800087E090218A4A49C787F0804049A
S11302607800447D40002040403D007F1028440039
S113027000417F40007C047804787C0804047838CA
S113028044444438FC1824241818242418FC7C08FA
S1130290040408485454542404043F44243C404077
S11302A0207C1C2040201C3C4030403C442810282A
S11302B0444C9090907C4464544C44000836410073
S11302C00000770000004136080002010204023CED
S11302D02623263C1EA1A16112FF810181FFFF811B
S11302E00181FFFF810181FFFF810181FFFF810106
S11302F081FFFF810181FFFF810181FFFF81018176
S1130300FFFF810181FFFF810181FFFF810181FFE7
S1130310FF810181FFFF810181FFFF810181FFFFD7
S1130320810181FFFF810181FFFF810181FFFF8145
S11303300181FFFF810181FFFF810181FFFF8101B5
S113034081FFFF810181FFFF810181FFFF81018125
S1130350FFFF810181FFFF810181FFFF810181FF97
S1130360FF810181FFFF810181FFFF810181FFFF87
S1130370810181FF00000000007814549478010288
S1130380020201107F484440423C243C427C4142EA
S1130390404048545655344A5555552900010001EA
S11303A000485556553448D4D4543404057E0504C5
S11303B0645456554C1010101010645556554C6426
S11303C05455544C00000000000002050200205463
S11303D0D4F840000040800000527E480000000233
S11303E0010000447C410200507A2900000102010E
S11303F000000080400000517A29000050F82800D5
S113040000083C492200687A5900000201020100F8
S1130410697A590000687A58007C141615687814B3
S1130420161578781615167879161616797815141F
S113043015787C40424140384446454438C44444DD
S11304404438454645447C545655447C54D454441D
S11304507C555455447C5556554400447E45000013
S1130460467D46007C45464538107C5444387C081B
S113047012217C7C0912217C384446453838464593
S113048046383846454639384544453844281028C6
S1130490447C151615683C4042403C3C4042413C7B
S11304A03C4241423D3C4140413C04087209040045
S11304B0443C0400FE4989966078100A09102054CF
S11304C05679402056557A402156567A4120555443
S11304D0794002457C400030484A494830C8484881
S11304E04830494A494838545655083854D4540871
S11304F03855545508385556550800407A4100007F
S1130500427942002070507D022070547E0478109D
S11305100A097078110A097030484A4930304A494A
S11305204A30304A494A3130494849300010541061
S11305300078110A09103840422078384042217866
S11305403842412279384140217818A0A2A178008C
S113055008FC480000000000000011241FBECFE585
S1130560D8E0DEBFCDBF10E0A0E6B0E0E4EEFCE0F2
S113057002C005900D92A037B107D9F724E0A0E797
S1130580B0E001C01D92A437B207E1F70E94CC028B
S11305900C9470060C94000060EB82E00E94C90584
S11305A0C12CD12CF12C10E042C00E94BE05E12CDC
S11305B001E022E040E650E06F2D712F8F2D912F46
S11305C00E94B20423E0A6016EE170E08AE090E0AC
S11305D00E94F80422E04CE650E06EE170E087E30C
S11305E090E00E94B20423E0AE016EE170E080E589
S11305F090E00E94F80422E04EE650E06EE170E0E4
S113060085E790E00E94B2040E943D058FE493ECDC
S11306100197F1F700C000002196CC33D10529F6EB
S11306209FEFC91AD90A88E1C816D10419F0CF2D51
S1130630D12FBBCFFFCF2F923F924F925F926F92F9
S11306407F928F929F92AF92BF92CF92DF92EF925E
S1130650FF920F93CF93DF93EC017B016A01C901F1
S1130660861B970BAC0122F444275527481B590BD2
S1130670B6016C1B7D0BCB01992324F488279927A1
S1130680861B970B71E060E0841795070CF070E00F
S1130690872E962E8114910451F09C2D8D2D690185
S11306A0292F382F9C2F8D2FE701E92EF82ECC16F9
S11306B0DD067CF59E2D8F2D7901292F382F9C2F57
S11306C08D2FE601C92ED82E24C0CC16DD06CCF120
S11306D044244A94542C03C044244394512C81143C
S11306E0910431F0402FBE01C7010E94610505C08D
S11306F0402FB701CE010E9461056A187B0822F4DD
S1130700E40CF51C620C731C2196CC16DD063CF738
S113071018C016012C1A3D0AC9018E199F095C01E3
S113072022F4AA24BB24A81AB90A310133201CF4E8
S11307308FEF681A780A75946794E216F30664F2E8
S1130740C4CFDF91CF910F91FF90EF90DF90CF90C6
S1130750BF90AF909F908F907F906F905F904F90DD
S11307603F902F9008950F93022F460F571F9A0121
S113077021503109AC010E941B030F910895AF92DF
S1130780BF92CF92DF92EF92FF920F93CF93DF93BA
S1130790EC015B0169017C01E40EF51E8E159F05D9
S11307A054F4202FA601B501CE010E94B303219673
S11307B0CE15DF05B4F3DF91CF910F91FF90EF9049
S11307C0DF90CF90BF90AF9008952F923F924F92B9
S11307D05F926F927F928F929F92AF92BF92CF92CD
S11307E0DF92EF92FF920F931F93CF93DF93CDB7D6
S11307F0DEB72A970FB6F894DEBF0FBECDBFD22E58
S11308001E2D803891050CF094C0603471050CF0F5
S113081090C02E2C312C9101220F331F220D331D39
S1130820220F331F280F391F215031090AF481C0C8
S11308309101220F331F220F331F220F331F260F64
S1130840371F215031090AF474C050E09A01220F75
S1130850331F220F331F420F531F41013C019B835F
S11308608A831C829A01281B390B38872F836D8356
S11308707E835B0138E0A30EB11CDA86502E8C8196
S1130880853009F44CC0EF81F885E60DF71DEC5A6C
S1130890FF4F049145C0998590FF13C0113041F476
S11308A00A859101A101B701C3010E94BF031CC0C5
S11308B00A859101A101B6018981942D0E94BF038B
S11308C013C0AA855A1681F0113031F4452DB701B1
S11308D0C3010E94610508C0052D9101A101B60163
S11308E08981942D0E94BF03B985B695B987C80C38
S11308F0D91CEFEFEE1AFE0AEA14FB0461F62C8110
S11309002F5F2C838A819B81880D991D9B838A8309
S11309109FEF691A790A263009F0B1CF0AC000E0C6
S1130920AA81A9834B80ED80FE80CE2CDF2C098721
S1130930B2CF2A960FB6F894DEBF0FBECDBFDF91BB
S1130940CF911F910F91FF90EF90DF90CF90BF90C8
S1130950AF909F908F907F906F905F904F903F905B
S11309602F900895BF92CF92DF92EF92FF920F9350
S11309701F93CF93DF93EA019093730480937204DF
S113098070937104609370044881442339F1BE2C40
S1130990F02E122FC22ED12CC601880F991FC80E1B
S11309A0D91ECC0CDD1C21966091700470917104E9
S11309B0E12E0B2D2F2D80917204909173040E94CF
S11309C0E50380917204909173048C0D9D1D9093A6
S11309D073048093720449914111E6CFDF91CF9162
S11309E01F910F91FF90EF90DF90CF90BF900895EB
S11309F0AF92BF92CF92DF92EF920F931F93CF9358
S1130A00DF93CDB7DEB760970FB6F894DEBF0FBEA5
S1130A10CDBF6C015B01CA01122F4AE0BE016F5FBA
S1130A207F4F0E943B06212FAC01B501C6010E94F5
S1130A30B20460960FB6F894DEBF0FBECDBFDF914F
S1130A40CF911F910F91EF90DF90CF90BF90AF9017
S1130A50089528E030E090E8DF98492F482311F00A
S1130A60DE9A01C0DE98DF9A969521503109A1F7EC
S1130A700895DC980E94290508950F931F93CF933E
S1130A80DF9380E00E94390580E10E94390580E40B
S1130A900E943905DC9AC0E7D0E000E714E08991B0
S1130AA00E942905C017D107D1F7DF91CF911F917B
S1130AB00F910895D69AD79AD79AD59ADD9AD49A4F
S1130AC008958038910508F058C06034710508F025
S1130AD054C0442349F1FB0177230CF43796F59570
S1130AE0E795F595E795F595E795F695FE2FEE27AD
S1130AF0F795E7958E0F9F1FFC01E059FF4F677034
S1130B007078772334F461507109686F7F6F6F5F79
S1130B107F4F81E090E002C0880F991F6A95E2F749
S1130B209081892B80830895FB0177230CF43796F9
S1130B30F595E795F595E795F595E795F695FE2FE7
S1130B40EE27F795E7958E0F9F1FFC01E059FF4FA5
S1130B5067707078772334F461507109686F7F6F20
S1130B606F5F7F4F81E090E002C0880F991F6A9504
S1130B70E2F78095908189238083089580E094E052
S1130B80E0E7F0E0DF019C011D9221503040E1F7E5
S1130B900895CF93DF93C82FD62F0E945A05DD9A6C
S1130BA089E698E10197F1F700C00000DD9889E635
S1130BB098E10197F1F700C00000DD9A8EEA0E94E7
S1130BC0390585ED0E9439058D2F0E94390583ED85
S1130BD00E94390580E00E94390580E40E943905AD
S1130BE08DE80E943905C130B1F480E10E943905D5
S1130BF080E20E94390580E00E94390581EA0E9462
S1130C00390588EC0E94390581E80E9439058FE98D
S1130C100E94390515C084E10E94390580E20E94D2
S1130C20390580E00E94390581EA0E94390588EC83
S1130C300E94390581E80E9439058FEC0E9439052C
S1130C4089ED0E94390588EA0E9439058FE30E94E4
S1130C5039058AED0E94390582E10E94390584EA4A
S1130C600E94390586EA0E9439058FEA0E943905F7
S1130C70DF91CF910895BB274A3031F4992322F4B0
S1130C80BDE2909581959F4F0C944706BB27FB01CD
S1130C905527AA27880F991FAA1FA41710F0A41B71
S1130CA083955051B9F7A05DAA3308F0A95DA193CB
S1130CB0009779F7B111B1931192CB010C946006AE
S1130CC0DC01FC01672F71917723E1F7329704C0AF
S1130CD07C916D9370836291AE17BF07C8F308953A
S1070CE0F894FFCFB2
S1130CE454494D4552204D4F444520006D00730036
S9030000FC
